:020000040800F2
:1000000060060020490200080B03000807030008EF
:100010000903000803030008590400080000000059
:100020000000000000000000000000000F030008B6
:1000300005030008000000000D030008110300087C
:1000400063020008630200086302000863020008FC
:1000500063020008630200086302000863020008EC
:1000600063020008630200086302000863020008DC
:1000700063020008630200086302000863020008CC
:1000800063020008630200086302000863020008BC
:1000900063020008630200086302000863020008AC
:1000A000630200086302000863020008630200089C
:1000B000630200086302000863020008630200088C
:1000C000630200086302000863020008630200087C
:1000D000630200086302000863020008630200086C
:1000E000630200086302000863020008630200085C
:1000F000630200086302000863020008630200084C
:10010000630200086302000863020008630200083B
:10011000630200086302000863020008630200082B
:10012000630200086302000863020008630200081B
:1001300063020008000000000000000063020008E5
:1001400063020008630200086302000863020008FB
:1001500063020008630200086302000863020008EB
:1001600063020008630200086302000863020008DB
:100170006302000863020008630200080000000038
:100180000000000063020008000000000000000002
:100190006302000800000000000000006302000885
:1001A00000000000000000000000000063020008E2
:1001B000630200086302000863020008630200088B
:1001C0006302000800F002F800F02EF80AA090E8A0
:1001D000000C82448344AAF10107DA4501D100F002
:1001E00023F8AFF2090EBAE80F0013F0010F18BFA1
:1001F000FB1A43F001031847700200008002000060
:100200000023002400250026103A28BF78C1FBD81F
:10021000520728BF30C148BF0B6070471FB500F0C0
:100220001DF91FBD10B510BD00F031F81146FFF7E4
:10023000F5FF00F012F900F04FF803B4FFF7F2FFFA
:1002400003BC00F057F80000094880470948004700
:10025000FEE7FEE7FEE7FEE7FEE7FEE7FEE7FEE776
:10026000FEE7FEE704480549054A064B70470000D3
:1002700015030008C501000860000020600600208A
:10028000600200206002002070477047704775468A
:1002900000F02CF8AE4605006946534620F00700F2
:1002A000854618B020B5FFF7DDFFBDE820404FF0D0
:1002B00000064FF000074FF000084FF0000B21F050
:1002C0000701AC46ACE8C009ACE8C009ACE8C0091D
:1002D000ACE8C0098D46704710B50446AFF3008006
:1002E0002046BDE81040FFF7A8BF00000048704757
:1002F0000000002001491820ABBEFEE726000200E6
:100300007047FEE77047FEE7FEE7704770477047AB
:1003100070470000474882B0016841F470010160F5
:100320004548016841F00101016044494FF0000C6B
:10033000C1F800C0026822F4102222F0807202602C
:10034000031D3F4A1A60026822F4802202600A1DDF
:10035000C2F800C0CDF804C0CDF800C0026842F475
:1003600080320260026802F400320092019A521C4C
:100370000192009A1AB9019AB2F5A04FF2D102681F
:1003800012F4003F08BFCDF800C04CD0012200920B
:100390002C4AD2F800C04CF0805CC2F800C02A4A57
:1003A000D2F800C04CF4404CC2F800C0D1F800C0F4
:1003B000C1F800C0D1F800C04CF4004CC1F800C036
:1003C000D1F800C04CF4A05CC1F800C0DFF87CC0DC
:1003D000C3F800C0036843F080730360036813F040
:1003E000007FFBD0106840F480301060506810F43B
:1003F000803FFBD0106840F400301060506810F46B
:10040000003FFBD0124A40F205701060086820F0EF
:1004100003000860086840F002000860086800F007
:100420000C000828FAD10B494FF00060086002B0B8
:100430007047000088ED00E00038024008380240B4
:10044000103000244038024000700040085A4077C5
:10045000003C024008ED00E0FEE7FEE74FF0407090
:10046000E1EE100A70470000780400080000002048
:08047000600600000002000814
:04000005080001C529
:00000001FF
