:020000040800F2
:10000000600600201D020008DF020008DB02000875
:10001000DD020008D7020008BD0300080000000050
:10002000000000000000000000000000E3020008E3
:10003000D902000800000000E1020008E502000803
:1000400037020008370200083702000837020008AC
:10005000370200083702000837020008370200089C
:10006000370200083702000837020008370200088C
:10007000370200083702000837020008370200087C
:1000800037020008370200083702000800000000AD
:10009000000000000000000000000000370200081F
:1000A000370200083702000837020008370200084C
:1000B000370200083702000837020008370200083C
:1000C000370200083702000837020008370200082C
:1000D000370200083702000837020008000000005D
:1000E000370200083702000837020008000000004D
:1000F00000000000000000000000000037020008BF
:10010000000000003702000837020008370200082C
:1001100000000000000000000000000000000000DF
:1001200037020008370200083702000837020008CB
:10013000370200080000000000000000000000007E
:10014000000000000000000000000000370200086E
:10015000370200083702000837020008370200089B
:10016000370200083702000800000000000000000D
:10017000000000000000000000000000000000007F
:10018000000000003702000800000000000000002E
:10019000370200083702000800F002F800F02EF8DD
:1001A0000AA090E8000C82448344AAF10107DA45D2
:1001B00001D100F023F8AFF2090EBAE80F0013F0F6
:1001C000010F18BFFB1A43F001031847000200009B
:1001D000100200000023002400250026103A28BF4A
:1001E00078C1FBD8520728BF30C148BF0B607047A9
:1001F0001FB500F0E5F81FBD10B510BD00F031F8D7
:100200001146FFF7F5FF00F0DAF800F04FF803B4FD
:10021000FFF7F2FF03BC00F057F8000009488047E1
:1002200009480047FEE7FEE7FEE7FEE7FEE7FEE7D8
:10023000FEE7FEE7FEE7FEE704480549054A064BF0
:1002400070470000E90200089901000860000020E2
:1002500060060020600200206002002070477047A6
:100260007047754600F02CF8AE46050069465346C7
:1002700020F00700854618B020B5FFF7DDFFBDE888
:1002800020404FF000064FF000074FF000084FF0FD
:10029000000B21F00701AC46ACE8C009ACE8C0098E
:1002A000ACE8C009ACE8C0098D46704710B50446FB
:1002B000AFF300802046BDE81040FFF7A8BF000064
:1002C000004870470000002001491820ABBEFEE73F
:1002D000260002007047FEE77047FEE7FEE7704722
:1002E00070477047704700002B48016841F4700167
:1002F00001602A49086840F001000860284800238E
:1003000003600A6822F4102222F080720A60021F41
:10031000DFF890C0C2F800C0D1F800C02CF4802CE7
:10032000C1F800C000F1040CCCF800301E4BD3F82B
:1003300000C04CF0805CC3F800C01C4BD3F800C078
:100340004CF4404CC3F800C00368036003680360CA
:10035000036843F480530360154B13600A6842F04E
:1003600080720A600A6812F0007FFBD0114A40F2E6
:1003700002711160016821F003010160016841F020
:1003800002010160016801F00C010829FAD1080698
:10039000094908607047000088ED00E0003802401D
:1003A00008380240103000244038024000700040FD
:1003B00010640107003C024008ED00E0FEE7FEE7A4
:1003C0004FF04070E1EE100A70470000DC030008B7
:0C03D0000000002060060000D4010008BE
:040000050800019955
:00000001FF
