:020000040800F2
:10000000600600205D0200081F0300081B030008B3
:100010001D03000817030008290400080000000061
:1000200000000000000000000000000023030008A2
:100030001903000800000000210300082503000840
:1000400077020008770200087702000877020008AC
:10005000770200087702000877020008770200089C
:10006000770200087702000877020008770200088C
:10007000770200087702000877020008770200087C
:10008000770200087702000877020008770200086C
:10009000770200087702000877020008770200085C
:1000A000770200087702000877020008770200084C
:1000B000770200087702000877020008770200083C
:1000C000770200087702000877020008770200082C
:1000D000770200087702000877020008770200081C
:1000E000770200087702000877020008770200080C
:1000F00077020008770200087702000877020008FC
:1001000077020008770200087702000877020008EB
:1001100077020008770200087702000877020008DB
:1001200077020008770200087702000877020008CB
:1001300077020008770200087702000877020008BB
:1001400077020008770200087702000877020008AB
:10015000770200087702000877020008770200089B
:10016000770200087702000877020008770200088B
:1001700077020008770200080000000077020008FC
:10018000770200087702000877020008770200086B
:1001900077020008770200080000000077020008DC
:1001A000770200087702000800000000000000004D
:1001B000770200080000000000000000770200083D
:1001C000770200087702000877020008770200082B
:1001D000770200087702000800F002F800F02EF81D
:1001E0000AA090E8000C82448344AAF10107DA4592
:1001F00001D100F023F8AFF2090EBAE80F0013F0B6
:10020000010F18BFFB1A43F0010318472C0200002E
:100210003C0200000023002400250026103A28BFDD
:1002200078C1FBD8520728BF30C148BF0B60704768
:100230001FB500F0FBF81FBD10B510BD00F031F880
:100240001146FFF7F5FF00F0F0F800F04FF803B4A7
:10025000FFF7F2FF03BC00F057F8000009488047A1
:1002600009480047FEE7FEE7FEE7FEE7FEE7FEE798
:10027000FEE7FEE7FEE7FEE704480549054A064BB0
:100280007047000029030008D90100086000002021
:100290006006002060020020600200207047704766
:1002A0007047754600F02CF8AE4605006946534687
:1002B00020F00700854618B020B5FFF7DDFFBDE848
:1002C00020404FF000064FF000074FF000084FF0BD
:1002D000000B21F00701AC46ACE8C009ACE8C0094E
:1002E000ACE8C009ACE8C0098D46704710B50446BB
:1002F000AFF300802046BDE81040FFF7A8BF000024
:10030000004870470000002001491820ABBEFEE7FE
:10031000260002007047FEE77047FEE7FEE77047E1
:100320007047704770470000364882B0016841F45A
:10033000700101603448016841F0010101603349F6
:1003400000230B60026822F4102222F08072026007
:1003500000F1040C2E4ACCF80020026822F480221E
:1003600002600A1D136001930093026842F4803218
:100370000260026802F400320092019A521C01925B
:10038000009A1AB9019AB2F5A04FF2D1026812F49C
:10039000003F08BF00932FD0012200921D4A13682E
:1003A00043F0805313601C4A136843F440431360C6
:1003B0000A680A600A680A600A6842F480520A60A1
:1003C000164ACCF80020026842F08072026002688F
:1003D00012F0007FFBD0124A40F2037010600868F0
:1003E00020F003000860086840F002000860086818
:1003F00000F00C000828FAD10A494FF000600860AC
:1004000002B0704788ED00E0003802400838024032
:10041000103000244038024000700040086441273A
:10042000003C024008ED00E0FEE7FEE74FF04070C0
:10043000E1EE100A704700004804000800000020A8
:08044000600600001402000830
:04000005080001D915
:00000001FF
